{
  "_format": "hh-sol-artifact-1",
  "contractName": "NFTMarketplace",
  "sourceName": "contracts/NFTMint.sol",
  "abi": [
    {
      "inputs": [],
      "stateMutability": "nonpayable",
      "type": "constructor"
    },
    {
      "anonymous": false,
      "inputs": [
        {
          "indexed": true,
          "internalType": "address",
          "name": "owner",
          "type": "address"
        },
        {
          "indexed": true,
          "internalType": "address",
          "name": "approved",
          "type": "address"
        },
        {
          "indexed": true,
          "internalType": "uint256",
          "name": "tokenId",
          "type": "uint256"
        }
      ],
      "name": "Approval",
      "type": "event"
    },
    {
      "anonymous": false,
      "inputs": [
        {
          "indexed": true,
          "internalType": "address",
          "name": "owner",
          "type": "address"
        },
        {
          "indexed": true,
          "internalType": "address",
          "name": "operator",
          "type": "address"
        },
        {
          "indexed": false,
          "internalType": "bool",
          "name": "approved",
          "type": "bool"
        }
      ],
      "name": "ApprovalForAll",
      "type": "event"
    },
    {
      "anonymous": false,
      "inputs": [
        {
          "indexed": false,
          "internalType": "uint256",
          "name": "_fromTokenId",
          "type": "uint256"
        },
        {
          "indexed": false,
          "internalType": "uint256",
          "name": "_toTokenId",
          "type": "uint256"
        }
      ],
      "name": "BatchMetadataUpdate",
      "type": "event"
    },
    {
      "anonymous": false,
      "inputs": [
        {
          "indexed": false,
          "internalType": "uint256",
          "name": "_tokenId",
          "type": "uint256"
        }
      ],
      "name": "MetadataUpdate",
      "type": "event"
    },
    {
      "anonymous": false,
      "inputs": [
        {
          "indexed": true,
          "internalType": "uint256",
          "name": "tokenId",
          "type": "uint256"
        },
        {
          "indexed": false,
          "internalType": "address",
          "name": "owner",
          "type": "address"
        },
        {
          "indexed": false,
          "internalType": "address",
          "name": "seller",
          "type": "address"
        },
        {
          "indexed": false,
          "internalType": "uint256",
          "name": "price",
          "type": "uint256"
        },
        {
          "indexed": false,
          "internalType": "bool",
          "name": "currentlyListed",
          "type": "bool"
        }
      ],
      "name": "TokenListedSuccess",
      "type": "event"
    },
    {
      "anonymous": false,
      "inputs": [
        {
          "indexed": true,
          "internalType": "address",
          "name": "from",
          "type": "address"
        },
        {
          "indexed": true,
          "internalType": "address",
          "name": "to",
          "type": "address"
        },
        {
          "indexed": true,
          "internalType": "uint256",
          "name": "tokenId",
          "type": "uint256"
        }
      ],
      "name": "Transfer",
      "type": "event"
    },
    {
      "inputs": [
        {
          "internalType": "address",
          "name": "to",
          "type": "address"
        },
        {
          "internalType": "uint256",
          "name": "tokenId",
          "type": "uint256"
        }
      ],
      "name": "approve",
      "outputs": [],
      "stateMutability": "nonpayable",
      "type": "function"
    },
    {
      "inputs": [
        {
          "internalType": "address",
          "name": "owner",
          "type": "address"
        }
      ],
      "name": "balanceOf",
      "outputs": [
        {
          "internalType": "uint256",
          "name": "",
          "type": "uint256"
        }
      ],
      "stateMutability": "view",
      "type": "function"
    },
    {
      "inputs": [
        {
          "internalType": "uint256",
          "name": "tokenId",
          "type": "uint256"
        },
        {
          "internalType": "uint256",
          "name": "price",
          "type": "uint256"
        }
      ],
      "name": "createListedToken",
      "outputs": [],
      "stateMutability": "payable",
      "type": "function"
    },
    {
      "inputs": [
        {
          "internalType": "string",
          "name": "tokenURI",
          "type": "string"
        },
        {
          "internalType": "uint256",
          "name": "price",
          "type": "uint256"
        }
      ],
      "name": "createToken",
      "outputs": [
        {
          "internalType": "uint256",
          "name": "",
          "type": "uint256"
        }
      ],
      "stateMutability": "payable",
      "type": "function"
    },
    {
      "inputs": [
        {
          "internalType": "uint256",
          "name": "tokenId",
          "type": "uint256"
        }
      ],
      "name": "executeSale",
      "outputs": [],
      "stateMutability": "payable",
      "type": "function"
    },
    {
      "inputs": [],
      "name": "getAllNFTs",
      "outputs": [
        {
          "components": [
            {
              "internalType": "uint256",
              "name": "tokenId",
              "type": "uint256"
            },
            {
              "internalType": "address payable",
              "name": "owner",
              "type": "address"
            },
            {
              "internalType": "address payable",
              "name": "seller",
              "type": "address"
            },
            {
              "internalType": "uint256",
              "name": "price",
              "type": "uint256"
            },
            {
              "internalType": "bool",
              "name": "currentlyListed",
              "type": "bool"
            }
          ],
          "internalType": "struct NFTMarketplace.ListedToken[]",
          "name": "",
          "type": "tuple[]"
        }
      ],
      "stateMutability": "view",
      "type": "function"
    },
    {
      "inputs": [
        {
          "internalType": "uint256",
          "name": "tokenId",
          "type": "uint256"
        }
      ],
      "name": "getApproved",
      "outputs": [
        {
          "internalType": "address",
          "name": "",
          "type": "address"
        }
      ],
      "stateMutability": "view",
      "type": "function"
    },
    {
      "inputs": [],
      "name": "getCurrentToken",
      "outputs": [
        {
          "internalType": "uint256",
          "name": "",
          "type": "uint256"
        }
      ],
      "stateMutability": "view",
      "type": "function"
    },
    {
      "inputs": [],
      "name": "getLatestIdToListedToken",
      "outputs": [
        {
          "components": [
            {
              "internalType": "uint256",
              "name": "tokenId",
              "type": "uint256"
            },
            {
              "internalType": "address payable",
              "name": "owner",
              "type": "address"
            },
            {
              "internalType": "address payable",
              "name": "seller",
              "type": "address"
            },
            {
              "internalType": "uint256",
              "name": "price",
              "type": "uint256"
            },
            {
              "internalType": "bool",
              "name": "currentlyListed",
              "type": "bool"
            }
          ],
          "internalType": "struct NFTMarketplace.ListedToken",
          "name": "",
          "type": "tuple"
        }
      ],
      "stateMutability": "view",
      "type": "function"
    },
    {
      "inputs": [],
      "name": "getListPrice",
      "outputs": [
        {
          "internalType": "uint256",
          "name": "",
          "type": "uint256"
        }
      ],
      "stateMutability": "view",
      "type": "function"
    },
    {
      "inputs": [
        {
          "internalType": "uint256",
          "name": "tokenId",
          "type": "uint256"
        }
      ],
      "name": "getListedTokenForId",
      "outputs": [
        {
          "components": [
            {
              "internalType": "uint256",
              "name": "tokenId",
              "type": "uint256"
            },
            {
              "internalType": "address payable",
              "name": "owner",
              "type": "address"
            },
            {
              "internalType": "address payable",
              "name": "seller",
              "type": "address"
            },
            {
              "internalType": "uint256",
              "name": "price",
              "type": "uint256"
            },
            {
              "internalType": "bool",
              "name": "currentlyListed",
              "type": "bool"
            }
          ],
          "internalType": "struct NFTMarketplace.ListedToken",
          "name": "",
          "type": "tuple"
        }
      ],
      "stateMutability": "view",
      "type": "function"
    },
    {
      "inputs": [],
      "name": "getMyNFTs",
      "outputs": [
        {
          "components": [
            {
              "internalType": "uint256",
              "name": "tokenId",
              "type": "uint256"
            },
            {
              "internalType": "address payable",
              "name": "owner",
              "type": "address"
            },
            {
              "internalType": "address payable",
              "name": "seller",
              "type": "address"
            },
            {
              "internalType": "uint256",
              "name": "price",
              "type": "uint256"
            },
            {
              "internalType": "bool",
              "name": "currentlyListed",
              "type": "bool"
            }
          ],
          "internalType": "struct NFTMarketplace.ListedToken[]",
          "name": "",
          "type": "tuple[]"
        }
      ],
      "stateMutability": "view",
      "type": "function"
    },
    {
      "inputs": [
        {
          "internalType": "address",
          "name": "owner",
          "type": "address"
        },
        {
          "internalType": "address",
          "name": "operator",
          "type": "address"
        }
      ],
      "name": "isApprovedForAll",
      "outputs": [
        {
          "internalType": "bool",
          "name": "",
          "type": "bool"
        }
      ],
      "stateMutability": "view",
      "type": "function"
    },
    {
      "inputs": [],
      "name": "name",
      "outputs": [
        {
          "internalType": "string",
          "name": "",
          "type": "string"
        }
      ],
      "stateMutability": "view",
      "type": "function"
    },
    {
      "inputs": [
        {
          "internalType": "uint256",
          "name": "tokenId",
          "type": "uint256"
        }
      ],
      "name": "ownerOf",
      "outputs": [
        {
          "internalType": "address",
          "name": "",
          "type": "address"
        }
      ],
      "stateMutability": "view",
      "type": "function"
    },
    {
      "inputs": [
        {
          "internalType": "address",
          "name": "from",
          "type": "address"
        },
        {
          "internalType": "address",
          "name": "to",
          "type": "address"
        },
        {
          "internalType": "uint256",
          "name": "tokenId",
          "type": "uint256"
        }
      ],
      "name": "safeTransferFrom",
      "outputs": [],
      "stateMutability": "nonpayable",
      "type": "function"
    },
    {
      "inputs": [
        {
          "internalType": "address",
          "name": "from",
          "type": "address"
        },
        {
          "internalType": "address",
          "name": "to",
          "type": "address"
        },
        {
          "internalType": "uint256",
          "name": "tokenId",
          "type": "uint256"
        },
        {
          "internalType": "bytes",
          "name": "data",
          "type": "bytes"
        }
      ],
      "name": "safeTransferFrom",
      "outputs": [],
      "stateMutability": "nonpayable",
      "type": "function"
    },
    {
      "inputs": [
        {
          "internalType": "address",
          "name": "operator",
          "type": "address"
        },
        {
          "internalType": "bool",
          "name": "approved",
          "type": "bool"
        }
      ],
      "name": "setApprovalForAll",
      "outputs": [],
      "stateMutability": "nonpayable",
      "type": "function"
    },
    {
      "inputs": [
        {
          "internalType": "bytes4",
          "name": "interfaceId",
          "type": "bytes4"
        }
      ],
      "name": "supportsInterface",
      "outputs": [
        {
          "internalType": "bool",
          "name": "",
          "type": "bool"
        }
      ],
      "stateMutability": "view",
      "type": "function"
    },
    {
      "inputs": [],
      "name": "symbol",
      "outputs": [
        {
          "internalType": "string",
          "name": "",
          "type": "string"
        }
      ],
      "stateMutability": "view",
      "type": "function"
    },
    {
      "inputs": [
        {
          "internalType": "uint256",
          "name": "tokenId",
          "type": "uint256"
        }
      ],
      "name": "tokenURI",
      "outputs": [
        {
          "internalType": "string",
          "name": "",
          "type": "string"
        }
      ],
      "stateMutability": "view",
      "type": "function"
    },
    {
      "inputs": [
        {
          "internalType": "address",
          "name": "from",
          "type": "address"
        },
        {
          "internalType": "address",
          "name": "to",
          "type": "address"
        },
        {
          "internalType": "uint256",
          "name": "tokenId",
          "type": "uint256"
        }
      ],
      "name": "transferFrom",
      "outputs": [],
      "stateMutability": "nonpayable",
      "type": "function"
    },
    {
      "inputs": [
        {
          "internalType": "uint256",
          "name": "_listPrice",
          "type": "uint256"
        }
      ],
      "name": "updateListPrice",
      "outputs": [],
      "stateMutability": "payable",
      "type": "function"
    }
  ],
  "bytecode": "0x6080604052662386f26fc10000600a553480156200001c57600080fd5b506040518060400160405280600e81526020017f4e46544d61726b6574706c6163650000000000000000000000000000000000008152506040518060400160405280600481526020017f4e46544d0000000000000000000000000000000000000000000000000000000081525081600090816200009a919062000370565b508060019081620000ac919062000370565b50505033600960006101000a81548173ffffffffffffffffffffffffffffffffffffffff021916908373ffffffffffffffffffffffffffffffffffffffff16021790555062000457565b600081519050919050565b7f4e487b7100000000000000000000000000000000000000000000000000000000600052604160045260246000fd5b7f4e487b7100000000000000000000000000000000000000000000000000000000600052602260045260246000fd5b600060028204905060018216806200017857607f821691505b6020821081036200018e576200018d62000130565b5b50919050565b60008190508160005260206000209050919050565b60006020601f8301049050919050565b600082821b905092915050565b600060088302620001f87fffffffffffffffffffffffffffffffffffffffffffffffffffffffffffffffff82620001b9565b620002048683620001b9565b95508019841693508086168417925050509392505050565b6000819050919050565b6000819050919050565b6000620002516200024b62000245846200021c565b62000226565b6200021c565b9050919050565b6000819050919050565b6200026d8362000230565b620002856200027c8262000258565b848454620001c6565b825550505050565b600090565b6200029c6200028d565b620002a981848462000262565b505050565b5b81811015620002d157620002c560008262000292565b600181019050620002af565b5050565b601f8211156200032057620002ea8162000194565b620002f584620001a9565b8101602085101562000305578190505b6200031d6200031485620001a9565b830182620002ae565b50505b505050565b600082821c905092915050565b6000620003456000198460080262000325565b1980831691505092915050565b600062000360838362000332565b9150826002028217905092915050565b6200037b82620000f6565b67ffffffffffffffff81111562000397576200039662000101565b5b620003a382546200015f565b620003b0828285620002d5565b600060209050601f831160018114620003e85760008415620003d3578287015190505b620003df858262000352565b8655506200044f565b601f198416620003f88662000194565b60005b828110156200042257848901518255600182019150602085019450602081019050620003fb565b868310156200044257848901516200043e601f89168262000332565b8355505b6001600288020188555050505b505050505050565b61404380620004676000396000f3fe6080604052600436106101405760003560e01c806372b3b620116100b6578063c322579c1161006f578063c322579c14610457578063c87b56dd14610473578063d1a88ae5146104b0578063e0391b09146104db578063e985e9c514610506578063ef2d17461461054357610140565b806372b3b620146103515780638e2645901461038157806395d89b41146103be5780639b1225c4146103e9578063a22cb46514610405578063b88d4fde1461042e57610140565b806342842e0e1161010857806342842e0e1461023c57806355524f5614610265578063629cb2e4146102815780636352211e146102ac57806368f1945f146102e957806370a082311461031457610140565b806301ffc9a71461014557806306fdde0314610182578063081812fc146101ad578063095ea7b3146101ea57806323b872dd14610213575b600080fd5b34801561015157600080fd5b5061016c60048036038101906101679190612990565b61056e565b60405161017991906129d8565b60405180910390f35b34801561018e57600080fd5b506101976105cf565b6040516101a49190612a83565b60405180910390f35b3480156101b957600080fd5b506101d460048036038101906101cf9190612adb565b610661565b6040516101e19190612b49565b60405180910390f35b3480156101f657600080fd5b50610211600480360381019061020c9190612b90565b6106a7565b005b34801561021f57600080fd5b5061023a60048036038101906102359190612bd0565b6107be565b005b34801561024857600080fd5b50610263600480360381019061025e9190612bd0565b61081e565b005b61027f600480360381019061027a9190612c23565b61083e565b005b34801561028d57600080fd5b50610296610a41565b6040516102a39190612db9565b60405180910390f35b3480156102b857600080fd5b506102d360048036038101906102ce9190612adb565b610e22565b6040516102e09190612b49565b60405180910390f35b3480156102f557600080fd5b506102fe610ea8565b60405161030b9190612dea565b60405180910390f35b34801561032057600080fd5b5061033b60048036038101906103369190612e05565b610eb2565b6040516103489190612dea565b60405180910390f35b61036b60048036038101906103669190612f67565b610f69565b6040516103789190612dea565b60405180910390f35b34801561038d57600080fd5b506103a860048036038101906103a39190612adb565b610fab565b6040516103b5919061302b565b60405180910390f35b3480156103ca57600080fd5b506103d36110b3565b6040516103e09190612a83565b60405180910390f35b61040360048036038101906103fe9190612adb565b611145565b005b34801561041157600080fd5b5061042c60048036038101906104279190613072565b611337565b005b34801561043a57600080fd5b5061045560048036038101906104509190613153565b61134d565b005b610471600480360381019061046c9190612adb565b6113af565b005b34801561047f57600080fd5b5061049a60048036038101906104959190612adb565b611449565b6040516104a79190612a83565b60405180910390f35b3480156104bc57600080fd5b506104c561155b565b6040516104d2919061302b565b60405180910390f35b3480156104e757600080fd5b506104f0611670565b6040516104fd9190612db9565b60405180910390f35b34801561051257600080fd5b5061052d600480360381019061052891906131d6565b611842565b60405161053a91906129d8565b60405180910390f35b34801561054f57600080fd5b506105586118d6565b6040516105659190612dea565b60405180910390f35b6000634906490660e01b7bffffffffffffffffffffffffffffffffffffffffffffffffffffffff1916827bffffffffffffffffffffffffffffffffffffffffffffffffffffffff191614806105c857506105c7826118e7565b5b9050919050565b6060600080546105de90613245565b80601f016020809104026020016040519081016040528092919081815260200182805461060a90613245565b80156106575780601f1061062c57610100808354040283529160200191610657565b820191906000526020600020905b81548152906001019060200180831161063a57829003601f168201915b5050505050905090565b600061066c826119c9565b6004600083815260200190815260200160002060009054906101000a900473ffffffffffffffffffffffffffffffffffffffff169050919050565b60006106b282610e22565b90508073ffffffffffffffffffffffffffffffffffffffff168373ffffffffffffffffffffffffffffffffffffffff1603610722576040517f08c379a0000000000000000000000000000000000000000000000000000000008152600401610719906132e8565b60405180910390fd5b8073ffffffffffffffffffffffffffffffffffffffff16610741611a14565b73ffffffffffffffffffffffffffffffffffffffff161480610770575061076f8161076a611a14565b611842565b5b6107af576040517f08c379a00000000000000000000000000000000000000000000000000000000081526004016107a69061337a565b60405180910390fd5b6107b98383611a1c565b505050565b6107cf6107c9611a14565b82611ad5565b61080e576040517f08c379a00000000000000000000000000000000000000000000000000000000081526004016108059061340c565b60405180910390fd5b610819838383611b6a565b505050565b6108398383836040518060200160405280600081525061134d565b505050565b600a543414610882576040517f08c379a00000000000000000000000000000000000000000000000000000000081526004016108799061349e565b60405180910390fd5b600081116108c5576040517f08c379a00000000000000000000000000000000000000000000000000000000081526004016108bc90613530565b60405180910390fd5b6040518060a001604052808381526020013073ffffffffffffffffffffffffffffffffffffffff1681526020013373ffffffffffffffffffffffffffffffffffffffff16815260200182815260200160011515815250600b60008481526020019081526020016000206000820151816000015560208201518160010160006101000a81548173ffffffffffffffffffffffffffffffffffffffff021916908373ffffffffffffffffffffffffffffffffffffffff16021790555060408201518160020160006101000a81548173ffffffffffffffffffffffffffffffffffffffff021916908373ffffffffffffffffffffffffffffffffffffffff1602179055506060820151816003015560808201518160040160006101000a81548160ff0219169083151502179055509050506109fe333084611b6a565b817f9339409317fd01fabff48b703019016f49159bacc801ae872d2ca637d226e4c03033846001604051610a359493929190613550565b60405180910390a25050565b60606000610a4f6007611e63565b9050600080600080600090505b84811015610b75573373ffffffffffffffffffffffffffffffffffffffff16600b6000600184610a8c91906135c4565b815260200190815260200160002060010160009054906101000a900473ffffffffffffffffffffffffffffffffffffffff1673ffffffffffffffffffffffffffffffffffffffff161480610b4d57503373ffffffffffffffffffffffffffffffffffffffff16600b6000600184610b0391906135c4565b815260200190815260200160002060020160009054906101000a900473ffffffffffffffffffffffffffffffffffffffff1673ffffffffffffffffffffffffffffffffffffffff16145b15610b6257600184610b5f91906135c4565b93505b8080610b6d906135f8565b915050610a5c565b5060008367ffffffffffffffff811115610b9257610b91612e3c565b5b604051908082528060200260200182016040528015610bcb57816020015b610bb86128c7565b815260200190600190039081610bb05790505b50905060005b85811015610e16573373ffffffffffffffffffffffffffffffffffffffff16600b6000600184610c0191906135c4565b815260200190815260200160002060010160009054906101000a900473ffffffffffffffffffffffffffffffffffffffff1673ffffffffffffffffffffffffffffffffffffffff161480610cc257503373ffffffffffffffffffffffffffffffffffffffff16600b6000600184610c7891906135c4565b815260200190815260200160002060020160009054906101000a900473ffffffffffffffffffffffffffffffffffffffff1673ffffffffffffffffffffffffffffffffffffffff16145b15610e0357600181610cd491906135c4565b92506000600b60008581526020019081526020016000209050806040518060a0016040529081600082015481526020016001820160009054906101000a900473ffffffffffffffffffffffffffffffffffffffff1673ffffffffffffffffffffffffffffffffffffffff1673ffffffffffffffffffffffffffffffffffffffff1681526020016002820160009054906101000a900473ffffffffffffffffffffffffffffffffffffffff1673ffffffffffffffffffffffffffffffffffffffff1673ffffffffffffffffffffffffffffffffffffffff168152602001600382015481526020016004820160009054906101000a900460ff161515151581525050838681518110610de757610de6613640565b5b6020026020010181905250600185610dff91906135c4565b9450505b8080610e0e906135f8565b915050610bd1565b50809550505050505090565b600080610e2e83611e71565b9050600073ffffffffffffffffffffffffffffffffffffffff168173ffffffffffffffffffffffffffffffffffffffff1603610e9f576040517f08c379a0000000000000000000000000000000000000000000000000000000008152600401610e96906136bb565b60405180910390fd5b80915050919050565b6000600a54905090565b60008073ffffffffffffffffffffffffffffffffffffffff168273ffffffffffffffffffffffffffffffffffffffff1603610f22576040517f08c379a0000000000000000000000000000000000000000000000000000000008152600401610f199061374d565b60405180910390fd5b600360008373ffffffffffffffffffffffffffffffffffffffff1673ffffffffffffffffffffffffffffffffffffffff168152602001908152602001600020549050919050565b6000610f756007611eae565b6000610f816007611e63565b9050610f8d3382611ec4565b610f978185611ee2565b610fa1818461083e565b8091505092915050565b610fb36128c7565b600b60008381526020019081526020016000206040518060a0016040529081600082015481526020016001820160009054906101000a900473ffffffffffffffffffffffffffffffffffffffff1673ffffffffffffffffffffffffffffffffffffffff1673ffffffffffffffffffffffffffffffffffffffff1681526020016002820160009054906101000a900473ffffffffffffffffffffffffffffffffffffffff1673ffffffffffffffffffffffffffffffffffffffff1673ffffffffffffffffffffffffffffffffffffffff168152602001600382015481526020016004820160009054906101000a900460ff1615151515815250509050919050565b6060600180546110c290613245565b80601f01602080910402602001604051908101604052809291908181526020018280546110ee90613245565b801561113b5780601f106111105761010080835404028352916020019161113b565b820191906000526020600020905b81548152906001019060200180831161111e57829003601f168201915b5050505050905090565b6000600b60008381526020019081526020016000206003015490506000600b600084815260200190815260200160002060020160009054906101000a900473ffffffffffffffffffffffffffffffffffffffff1690508134146111dd576040517f08c379a00000000000000000000000000000000000000000000000000000000081526004016111d4906137df565b60405180910390fd5b6001600b600085815260200190815260200160002060040160006101000a81548160ff02191690831515021790555033600b600085815260200190815260200160002060020160006101000a81548173ffffffffffffffffffffffffffffffffffffffff021916908373ffffffffffffffffffffffffffffffffffffffff16021790555061126b6008611eae565b611276303385611b6a565b61128030846106a7565b600960009054906101000a900473ffffffffffffffffffffffffffffffffffffffff1673ffffffffffffffffffffffffffffffffffffffff166108fc600a549081150290604051600060405180830381858888f193505050501580156112ea573d6000803e3d6000fd5b508073ffffffffffffffffffffffffffffffffffffffff166108fc349081150290604051600060405180830381858888f19350505050158015611331573d6000803e3d6000fd5b50505050565b611349611342611a14565b8383611f86565b5050565b61135e611358611a14565b83611ad5565b61139d576040517f08c379a00000000000000000000000000000000000000000000000000000000081526004016113949061340c565b60405180910390fd5b6113a9848484846120f2565b50505050565b3373ffffffffffffffffffffffffffffffffffffffff16600960009054906101000a900473ffffffffffffffffffffffffffffffffffffffff1673ffffffffffffffffffffffffffffffffffffffff161461143f576040517f08c379a000000000000000000000000000000000000000000000000000000000815260040161143690613871565b60405180910390fd5b80600a8190555050565b6060611454826119c9565b600060066000848152602001908152602001600020805461147490613245565b80601f01602080910402602001604051908101604052809291908181526020018280546114a090613245565b80156114ed5780601f106114c2576101008083540402835291602001916114ed565b820191906000526020600020905b8154815290600101906020018083116114d057829003601f168201915b5050505050905060006114fe61214e565b90506000815103611513578192505050611556565b6000825111156115485780826040516020016115309291906138cd565b60405160208183030381529060405292505050611556565b61155184612165565b925050505b919050565b6115636128c7565b600061156f6007611e63565b9050600b60008281526020019081526020016000206040518060a0016040529081600082015481526020016001820160009054906101000a900473ffffffffffffffffffffffffffffffffffffffff1673ffffffffffffffffffffffffffffffffffffffff1673ffffffffffffffffffffffffffffffffffffffff1681526020016002820160009054906101000a900473ffffffffffffffffffffffffffffffffffffffff1673ffffffffffffffffffffffffffffffffffffffff1673ffffffffffffffffffffffffffffffffffffffff168152602001600382015481526020016004820160009054906101000a900460ff16151515158152505091505090565b6060600061167e6007611e63565b905060008167ffffffffffffffff81111561169c5761169b612e3c565b5b6040519080825280602002602001820160405280156116d557816020015b6116c26128c7565b8152602001906001900390816116ba5790505b50905060008080600090505b84811015611837576001816116f691906135c4565b91506000600b60008481526020019081526020016000209050806040518060a0016040529081600082015481526020016001820160009054906101000a900473ffffffffffffffffffffffffffffffffffffffff1673ffffffffffffffffffffffffffffffffffffffff1673ffffffffffffffffffffffffffffffffffffffff1681526020016002820160009054906101000a900473ffffffffffffffffffffffffffffffffffffffff1673ffffffffffffffffffffffffffffffffffffffff1673ffffffffffffffffffffffffffffffffffffffff168152602001600382015481526020016004820160009054906101000a900460ff16151515158152505085858151811061180957611808613640565b5b602002602001018190525060018461182191906135c4565b935050808061182f906135f8565b9150506116e1565b508294505050505090565b6000600560008473ffffffffffffffffffffffffffffffffffffffff1673ffffffffffffffffffffffffffffffffffffffff16815260200190815260200160002060008373ffffffffffffffffffffffffffffffffffffffff1673ffffffffffffffffffffffffffffffffffffffff16815260200190815260200160002060009054906101000a900460ff16905092915050565b60006118e26007611e63565b905090565b60007f80ac58cd000000000000000000000000000000000000000000000000000000007bffffffffffffffffffffffffffffffffffffffffffffffffffffffff1916827bffffffffffffffffffffffffffffffffffffffffffffffffffffffff191614806119b257507f5b5e139f000000000000000000000000000000000000000000000000000000007bffffffffffffffffffffffffffffffffffffffffffffffffffffffff1916827bffffffffffffffffffffffffffffffffffffffffffffffffffffffff1916145b806119c257506119c1826121cd565b5b9050919050565b6119d281612237565b611a11576040517f08c379a0000000000000000000000000000000000000000000000000000000008152600401611a08906136bb565b60405180910390fd5b50565b600033905090565b816004600083815260200190815260200160002060006101000a81548173ffffffffffffffffffffffffffffffffffffffff021916908373ffffffffffffffffffffffffffffffffffffffff160217905550808273ffffffffffffffffffffffffffffffffffffffff16611a8f83610e22565b73ffffffffffffffffffffffffffffffffffffffff167f8c5be1e5ebec7d5bd14f71427d1e84f3dd0314c0f7b2291e5b200ac8c7c3b92560405160405180910390a45050565b600080611ae183610e22565b90508073ffffffffffffffffffffffffffffffffffffffff168473ffffffffffffffffffffffffffffffffffffffff161480611b235750611b228185611842565b5b80611b6157508373ffffffffffffffffffffffffffffffffffffffff16611b4984610661565b73ffffffffffffffffffffffffffffffffffffffff16145b91505092915050565b8273ffffffffffffffffffffffffffffffffffffffff16611b8a82610e22565b73ffffffffffffffffffffffffffffffffffffffff1614611be0576040517f08c379a0000000000000000000000000000000000000000000000000000000008152600401611bd790613963565b60405180910390fd5b600073ffffffffffffffffffffffffffffffffffffffff168273ffffffffffffffffffffffffffffffffffffffff1603611c4f576040517f08c379a0000000000000000000000000000000000000000000000000000000008152600401611c46906139f5565b60405180910390fd5b611c5c8383836001612278565b8273ffffffffffffffffffffffffffffffffffffffff16611c7c82610e22565b73ffffffffffffffffffffffffffffffffffffffff1614611cd2576040517f08c379a0000000000000000000000000000000000000000000000000000000008152600401611cc990613963565b60405180910390fd5b6004600082815260200190815260200160002060006101000a81549073ffffffffffffffffffffffffffffffffffffffff02191690556001600360008573ffffffffffffffffffffffffffffffffffffffff1673ffffffffffffffffffffffffffffffffffffffff168152602001908152602001600020600082825403925050819055506001600360008473ffffffffffffffffffffffffffffffffffffffff1673ffffffffffffffffffffffffffffffffffffffff16815260200190815260200160002060008282540192505081905550816002600083815260200190815260200160002060006101000a81548173ffffffffffffffffffffffffffffffffffffffff021916908373ffffffffffffffffffffffffffffffffffffffff160217905550808273ffffffffffffffffffffffffffffffffffffffff168473ffffffffffffffffffffffffffffffffffffffff167fddf252ad1be2c89b69c2b068fc378daa952ba7f163c4a11628f55a4df523b3ef60405160405180910390a4611e5e838383600161227e565b505050565b600081600001549050919050565b60006002600083815260200190815260200160002060009054906101000a900473ffffffffffffffffffffffffffffffffffffffff169050919050565b6001816000016000828254019250508190555050565b611ede828260405180602001604052806000815250612284565b5050565b611eeb82612237565b611f2a576040517f08c379a0000000000000000000000000000000000000000000000000000000008152600401611f2190613a87565b60405180910390fd5b80600660008481526020019081526020016000209081611f4a9190613c53565b507ff8e1a15aba9398e019f0b49df1a4fde98ee17ae345cb5f6b5e2c27f5033e8ce782604051611f7a9190612dea565b60405180910390a15050565b8173ffffffffffffffffffffffffffffffffffffffff168373ffffffffffffffffffffffffffffffffffffffff1603611ff4576040517f08c379a0000000000000000000000000000000000000000000000000000000008152600401611feb90613d71565b60405180910390fd5b80600560008573ffffffffffffffffffffffffffffffffffffffff1673ffffffffffffffffffffffffffffffffffffffff16815260200190815260200160002060008473ffffffffffffffffffffffffffffffffffffffff1673ffffffffffffffffffffffffffffffffffffffff16815260200190815260200160002060006101000a81548160ff0219169083151502179055508173ffffffffffffffffffffffffffffffffffffffff168373ffffffffffffffffffffffffffffffffffffffff167f17307eab39ab6107e8899845ad3d59bd9653f200f220920489ca2b5937696c31836040516120e591906129d8565b60405180910390a3505050565b6120fd848484611b6a565b612109848484846122df565b612148576040517f08c379a000000000000000000000000000000000000000000000000000000000815260040161213f90613e03565b60405180910390fd5b50505050565b606060405180602001604052806000815250905090565b6060612170826119c9565b600061217a61214e565b9050600081511161219a57604051806020016040528060008152506121c5565b806121a484612466565b6040516020016121b59291906138cd565b6040516020818303038152906040525b915050919050565b60007f01ffc9a7000000000000000000000000000000000000000000000000000000007bffffffffffffffffffffffffffffffffffffffffffffffffffffffff1916827bffffffffffffffffffffffffffffffffffffffffffffffffffffffff1916149050919050565b60008073ffffffffffffffffffffffffffffffffffffffff1661225983611e71565b73ffffffffffffffffffffffffffffffffffffffff1614159050919050565b50505050565b50505050565b61228e8383612534565b61229b60008484846122df565b6122da576040517f08c379a00000000000000000000000000000000000000000000000000000000081526004016122d190613e03565b60405180910390fd5b505050565b60006123008473ffffffffffffffffffffffffffffffffffffffff16612751565b15612459578373ffffffffffffffffffffffffffffffffffffffff1663150b7a02612329611a14565b8786866040518563ffffffff1660e01b815260040161234b9493929190613e78565b6020604051808303816000875af192505050801561238757506040513d601f19601f820116820180604052508101906123849190613ed9565b60015b612409573d80600081146123b7576040519150601f19603f3d011682016040523d82523d6000602084013e6123bc565b606091505b506000815103612401576040517f08c379a00000000000000000000000000000000000000000000000000000000081526004016123f890613e03565b60405180910390fd5b805181602001fd5b63150b7a0260e01b7bffffffffffffffffffffffffffffffffffffffffffffffffffffffff1916817bffffffffffffffffffffffffffffffffffffffffffffffffffffffff19161491505061245e565b600190505b949350505050565b60606000600161247584612774565b01905060008167ffffffffffffffff81111561249457612493612e3c565b5b6040519080825280601f01601f1916602001820160405280156124c65781602001600182028036833780820191505090505b509050600082602001820190505b600115612529578080600190039150507f3031323334353637383961626364656600000000000000000000000000000000600a86061a8153600a858161251d5761251c613f06565b5b049450600085036124d4575b819350505050919050565b600073ffffffffffffffffffffffffffffffffffffffff168273ffffffffffffffffffffffffffffffffffffffff16036125a3576040517f08c379a000000000000000000000000000000000000000000000000000000000815260040161259a90613f81565b60405180910390fd5b6125ac81612237565b156125ec576040517f08c379a00000000000000000000000000000000000000000000000000000000081526004016125e390613fed565b60405180910390fd5b6125fa600083836001612278565b61260381612237565b15612643576040517f08c379a000000000000000000000000000000000000000000000000000000000815260040161263a90613fed565b60405180910390fd5b6001600360008473ffffffffffffffffffffffffffffffffffffffff1673ffffffffffffffffffffffffffffffffffffffff16815260200190815260200160002060008282540192505081905550816002600083815260200190815260200160002060006101000a81548173ffffffffffffffffffffffffffffffffffffffff021916908373ffffffffffffffffffffffffffffffffffffffff160217905550808273ffffffffffffffffffffffffffffffffffffffff16600073ffffffffffffffffffffffffffffffffffffffff167fddf252ad1be2c89b69c2b068fc378daa952ba7f163c4a11628f55a4df523b3ef60405160405180910390a461274d60008383600161227e565b5050565b6000808273ffffffffffffffffffffffffffffffffffffffff163b119050919050565b600080600090507a184f03e93ff9f4daa797ed6e38ed64bf6a1f01000000000000000083106127d2577a184f03e93ff9f4daa797ed6e38ed64bf6a1f01000000000000000083816127c8576127c7613f06565b5b0492506040810190505b6d04ee2d6d415b85acef8100000000831061280f576d04ee2d6d415b85acef8100000000838161280557612804613f06565b5b0492506020810190505b662386f26fc10000831061283e57662386f26fc10000838161283457612833613f06565b5b0492506010810190505b6305f5e1008310612867576305f5e100838161285d5761285c613f06565b5b0492506008810190505b612710831061288c57612710838161288257612881613f06565b5b0492506004810190505b606483106128af57606483816128a5576128a4613f06565b5b0492506002810190505b600a83106128be576001810190505b80915050919050565b6040518060a0016040528060008152602001600073ffffffffffffffffffffffffffffffffffffffff168152602001600073ffffffffffffffffffffffffffffffffffffffff168152602001600081526020016000151581525090565b6000604051905090565b600080fd5b600080fd5b60007fffffffff0000000000000000000000000000000000000000000000000000000082169050919050565b61296d81612938565b811461297857600080fd5b50565b60008135905061298a81612964565b92915050565b6000602082840312156129a6576129a561292e565b5b60006129b48482850161297b565b91505092915050565b60008115159050919050565b6129d2816129bd565b82525050565b60006020820190506129ed60008301846129c9565b92915050565b600081519050919050565b600082825260208201905092915050565b60005b83811015612a2d578082015181840152602081019050612a12565b60008484015250505050565b6000601f19601f8301169050919050565b6000612a55826129f3565b612a5f81856129fe565b9350612a6f818560208601612a0f565b612a7881612a39565b840191505092915050565b60006020820190508181036000830152612a9d8184612a4a565b905092915050565b6000819050919050565b612ab881612aa5565b8114612ac357600080fd5b50565b600081359050612ad581612aaf565b92915050565b600060208284031215612af157612af061292e565b5b6000612aff84828501612ac6565b91505092915050565b600073ffffffffffffffffffffffffffffffffffffffff82169050919050565b6000612b3382612b08565b9050919050565b612b4381612b28565b82525050565b6000602082019050612b5e6000830184612b3a565b92915050565b612b6d81612b28565b8114612b7857600080fd5b50565b600081359050612b8a81612b64565b92915050565b60008060408385031215612ba757612ba661292e565b5b6000612bb585828601612b7b565b9250506020612bc685828601612ac6565b9150509250929050565b600080600060608486031215612be957612be861292e565b5b6000612bf786828701612b7b565b9350506020612c0886828701612b7b565b9250506040612c1986828701612ac6565b9150509250925092565b60008060408385031215612c3a57612c3961292e565b5b6000612c4885828601612ac6565b9250506020612c5985828601612ac6565b9150509250929050565b600081519050919050565b600082825260208201905092915050565b6000819050602082019050919050565b612c9881612aa5565b82525050565b6000612ca982612b08565b9050919050565b612cb981612c9e565b82525050565b612cc8816129bd565b82525050565b60a082016000820151612ce46000850182612c8f565b506020820151612cf76020850182612cb0565b506040820151612d0a6040850182612cb0565b506060820151612d1d6060850182612c8f565b506080820151612d306080850182612cbf565b50505050565b6000612d428383612cce565b60a08301905092915050565b6000602082019050919050565b6000612d6682612c63565b612d708185612c6e565b9350612d7b83612c7f565b8060005b83811015612dac578151612d938882612d36565b9750612d9e83612d4e565b925050600181019050612d7f565b5085935050505092915050565b60006020820190508181036000830152612dd38184612d5b565b905092915050565b612de481612aa5565b82525050565b6000602082019050612dff6000830184612ddb565b92915050565b600060208284031215612e1b57612e1a61292e565b5b6000612e2984828501612b7b565b91505092915050565b600080fd5b600080fd5b7f4e487b7100000000000000000000000000000000000000000000000000000000600052604160045260246000fd5b612e7482612a39565b810181811067ffffffffffffffff82111715612e9357612e92612e3c565b5b80604052505050565b6000612ea6612924565b9050612eb28282612e6b565b919050565b600067ffffffffffffffff821115612ed257612ed1612e3c565b5b612edb82612a39565b9050602081019050919050565b82818337600083830152505050565b6000612f0a612f0584612eb7565b612e9c565b905082815260208101848484011115612f2657612f25612e37565b5b612f31848285612ee8565b509392505050565b600082601f830112612f4e57612f4d612e32565b5b8135612f5e848260208601612ef7565b91505092915050565b60008060408385031215612f7e57612f7d61292e565b5b600083013567ffffffffffffffff811115612f9c57612f9b612933565b5b612fa885828601612f39565b9250506020612fb985828601612ac6565b9150509250929050565b60a082016000820151612fd96000850182612c8f565b506020820151612fec6020850182612cb0565b506040820151612fff6040850182612cb0565b5060608201516130126060850182612c8f565b5060808201516130256080850182612cbf565b50505050565b600060a0820190506130406000830184612fc3565b92915050565b61304f816129bd565b811461305a57600080fd5b50565b60008135905061306c81613046565b92915050565b600080604083850312156130895761308861292e565b5b600061309785828601612b7b565b92505060206130a88582860161305d565b9150509250929050565b600067ffffffffffffffff8211156130cd576130cc612e3c565b5b6130d682612a39565b9050602081019050919050565b60006130f66130f1846130b2565b612e9c565b90508281526020810184848401111561311257613111612e37565b5b61311d848285612ee8565b509392505050565b600082601f83011261313a57613139612e32565b5b813561314a8482602086016130e3565b91505092915050565b6000806000806080858703121561316d5761316c61292e565b5b600061317b87828801612b7b565b945050602061318c87828801612b7b565b935050604061319d87828801612ac6565b925050606085013567ffffffffffffffff8111156131be576131bd612933565b5b6131ca87828801613125565b91505092959194509250565b600080604083850312156131ed576131ec61292e565b5b60006131fb85828601612b7b565b925050602061320c85828601612b7b565b9150509250929050565b7f4e487b7100000000000000000000000000000000000000000000000000000000600052602260045260246000fd5b6000600282049050600182168061325d57607f821691505b6020821081036132705761326f613216565b5b50919050565b7f4552433732313a20617070726f76616c20746f2063757272656e74206f776e6560008201527f7200000000000000000000000000000000000000000000000000000000000000602082015250565b60006132d26021836129fe565b91506132dd82613276565b604082019050919050565b60006020820190508181036000830152613301816132c5565b9050919050565b7f4552433732313a20617070726f76652063616c6c6572206973206e6f7420746f60008201527f6b656e206f776e6572206f7220617070726f76656420666f7220616c6c000000602082015250565b6000613364603d836129fe565b915061336f82613308565b604082019050919050565b6000602082019050818103600083015261339381613357565b9050919050565b7f4552433732313a2063616c6c6572206973206e6f7420746f6b656e206f776e6560008201527f72206f7220617070726f76656400000000000000000000000000000000000000602082015250565b60006133f6602d836129fe565b91506134018261339a565b604082019050919050565b60006020820190508181036000830152613425816133e9565b9050919050565b7f486f706566756c6c792073656e64696e672074686520636f727265637420707260008201527f6963650000000000000000000000000000000000000000000000000000000000602082015250565b60006134886023836129fe565b91506134938261342c565b604082019050919050565b600060208201905081810360008301526134b78161347b565b9050919050565b7f4d616b652073757265207468652070726963652069736e2774206e656761746960008201527f7665000000000000000000000000000000000000000000000000000000000000602082015250565b600061351a6022836129fe565b9150613525826134be565b604082019050919050565b600060208201905081810360008301526135498161350d565b9050919050565b60006080820190506135656000830187612b3a565b6135726020830186612b3a565b61357f6040830185612ddb565b61358c60608301846129c9565b95945050505050565b7f4e487b7100000000000000000000000000000000000000000000000000000000600052601160045260246000fd5b60006135cf82612aa5565b91506135da83612aa5565b92508282019050808211156135f2576135f1613595565b5b92915050565b600061360382612aa5565b91507fffffffffffffffffffffffffffffffffffffffffffffffffffffffffffffffff820361363557613634613595565b5b600182019050919050565b7f4e487b7100000000000000000000000000000000000000000000000000000000600052603260045260246000fd5b7f4552433732313a20696e76616c696420746f6b656e2049440000000000000000600082015250565b60006136a56018836129fe565b91506136b08261366f565b602082019050919050565b600060208201905081810360008301526136d481613698565b9050919050565b7f4552433732313a2061646472657373207a65726f206973206e6f74206120766160008201527f6c6964206f776e65720000000000000000000000000000000000000000000000602082015250565b60006137376029836129fe565b9150613742826136db565b604082019050919050565b600060208201905081810360008301526137668161372a565b9050919050565b7f506c65617365207375626d6974207468652061736b696e67207072696365206960008201527f6e206f7264657220746f20636f6d706c65746520746865207075726368617365602082015250565b60006137c96040836129fe565b91506137d48261376d565b604082019050919050565b600060208201905081810360008301526137f8816137bc565b9050919050565b7f4f6e6c79206f776e65722063616e20757064617465206c697374696e6720707260008201527f6963650000000000000000000000000000000000000000000000000000000000602082015250565b600061385b6023836129fe565b9150613866826137ff565b604082019050919050565b6000602082019050818103600083015261388a8161384e565b9050919050565b600081905092915050565b60006138a7826129f3565b6138b18185613891565b93506138c1818560208601612a0f565b80840191505092915050565b60006138d9828561389c565b91506138e5828461389c565b91508190509392505050565b7f4552433732313a207472616e736665722066726f6d20696e636f72726563742060008201527f6f776e6572000000000000000000000000000000000000000000000000000000602082015250565b600061394d6025836129fe565b9150613958826138f1565b604082019050919050565b6000602082019050818103600083015261397c81613940565b9050919050565b7f4552433732313a207472616e7366657220746f20746865207a65726f2061646460008201527f7265737300000000000000000000000000000000000000000000000000000000602082015250565b60006139df6024836129fe565b91506139ea82613983565b604082019050919050565b60006020820190508181036000830152613a0e816139d2565b9050919050565b7f45524337323155524953746f726167653a2055524920736574206f66206e6f6e60008201527f6578697374656e7420746f6b656e000000000000000000000000000000000000602082015250565b6000613a71602e836129fe565b9150613a7c82613a15565b604082019050919050565b60006020820190508181036000830152613aa081613a64565b9050919050565b60008190508160005260206000209050919050565b60006020601f8301049050919050565b600082821b905092915050565b600060088302613b097fffffffffffffffffffffffffffffffffffffffffffffffffffffffffffffffff82613acc565b613b138683613acc565b95508019841693508086168417925050509392505050565b6000819050919050565b6000613b50613b4b613b4684612aa5565b613b2b565b612aa5565b9050919050565b6000819050919050565b613b6a83613b35565b613b7e613b7682613b57565b848454613ad9565b825550505050565b600090565b613b93613b86565b613b9e818484613b61565b505050565b5b81811015613bc257613bb7600082613b8b565b600181019050613ba4565b5050565b601f821115613c0757613bd881613aa7565b613be184613abc565b81016020851015613bf0578190505b613c04613bfc85613abc565b830182613ba3565b50505b505050565b600082821c905092915050565b6000613c2a60001984600802613c0c565b1980831691505092915050565b6000613c438383613c19565b9150826002028217905092915050565b613c5c826129f3565b67ffffffffffffffff811115613c7557613c74612e3c565b5b613c7f8254613245565b613c8a828285613bc6565b600060209050601f831160018114613cbd5760008415613cab578287015190505b613cb58582613c37565b865550613d1d565b601f198416613ccb86613aa7565b60005b82811015613cf357848901518255600182019150602085019450602081019050613cce565b86831015613d105784890151613d0c601f891682613c19565b8355505b6001600288020188555050505b505050505050565b7f4552433732313a20617070726f766520746f2063616c6c657200000000000000600082015250565b6000613d5b6019836129fe565b9150613d6682613d25565b602082019050919050565b60006020820190508181036000830152613d8a81613d4e565b9050919050565b7f4552433732313a207472616e7366657220746f206e6f6e20455243373231526560008201527f63656976657220696d706c656d656e7465720000000000000000000000000000602082015250565b6000613ded6032836129fe565b9150613df882613d91565b604082019050919050565b60006020820190508181036000830152613e1c81613de0565b9050919050565b600081519050919050565b600082825260208201905092915050565b6000613e4a82613e23565b613e548185613e2e565b9350613e64818560208601612a0f565b613e6d81612a39565b840191505092915050565b6000608082019050613e8d6000830187612b3a565b613e9a6020830186612b3a565b613ea76040830185612ddb565b8181036060830152613eb98184613e3f565b905095945050505050565b600081519050613ed381612964565b92915050565b600060208284031215613eef57613eee61292e565b5b6000613efd84828501613ec4565b91505092915050565b7f4e487b7100000000000000000000000000000000000000000000000000000000600052601260045260246000fd5b7f4552433732313a206d696e7420746f20746865207a65726f2061646472657373600082015250565b6000613f6b6020836129fe565b9150613f7682613f35565b602082019050919050565b60006020820190508181036000830152613f9a81613f5e565b9050919050565b7f4552433732313a20746f6b656e20616c7265616479206d696e74656400000000600082015250565b6000613fd7601c836129fe565b9150613fe282613fa1565b602082019050919050565b6000602082019050818103600083015261400681613fca565b905091905056fea2646970667358221220673b3d1f638e39c6c9f797c02f977e4ef984d4439027001e4fdf96351dd58c9264736f6c63430008140033",
  "linkReferences": {},
  "deployedLinkReferences": {}
}